:100000000C9462000C947F000C947F000C947F0091
:100010000C947F000C947F000C947F000C94F102F0
:100020000C947F000C947F000C947F000C947F0054
:100030000C947F000C947F000C947F000C947F0044
:100040000C940B010C947F000C947F000C947F00A7
:100050000C947F000C947F000C947F000C947F0024
:100060000C947F000C947F00000000002400270007
:100070002A0000000000250028002B0000000000DE
:1000800023002600290004040404040404040202DA
:100090000202020203030303030301020408102007
:1000A0004080010204081020010204081020000012
:1000B0000007000201000003040600000000000029
:1000C0000000020011241FBECFEFD8E0DEBFCDBF7D
:1000D00011E0A0E0B1E0E4E1FCE002C005900D9287
:1000E000A430B107D9F711E0A4E0B1E001C01D923E
:1000F000A632B107E1F70E94AA020C9408060C94FC
:100100000000AF92BF92CF92DF92EF92FF920F93D7
:100110001F938EE00E94F5019093050180930401E6
:1001200000D000D0AA2797FDA095BA2F20910001FA
:1001300030910101442737FD4095542FE09006018E
:10014000F09007010027F7FC0095102FF0EAAF2E82
:10015000FFE0BF2EC12CD12CEDB7FEB7A182B28239
:10016000C382D482BC01CD01E2E3AE2EB12CC12CFE
:10017000D12C0E9463059B01AC010F900F900F9052
:100180000F9088E0B90124E130E040E050E00E94A7
:100190004D036AE070E080E090E00E9461011F91F1
:1001A0000F91FF90EF90DF90CF90BF90AF900895A8
:1001B0008DE061E00E9417028DE061E00E9456022E
:1001C0001EC08EE00E94F5019C0190930501809372
:1001D000040180910601909107018217930724F48E
:1001E0003093070120930601809100019091010155
:1001F0002817390724F430930101209300010E944D
:1002000053016858734180409040D8F28DE060E01F
:100210000E94560208951F920F920FB60F9211245A
:100220002F933F938F939F93AF93BF9380910C0134
:1002300090910D01A0910E01B0910F01309110012C
:100240000196A11DB11D232F2D5F2D3720F02D57B5
:100250000196A11DB11D2093100180930C01909374
:100260000D01A0930E01B0930F01809108019091B0
:100270000901A0910A01B0910B010196A11DB11DC8
:100280008093080190930901A0930A01B0930B0198
:10029000BF91AF919F918F913F912F910F900FBE82
:1002A0000F901F9018958FB7F89420910C01309102
:1002B0000D0140910E0150910F018FBFB901CA018C
:1002C00008959B01AC017FB7F8948091080190914B
:1002D0000901A0910A01B0910B0166B5A89B05C068
:1002E0006F3F19F00196A11DB11D7FBFBA2FA92F35
:1002F000982F8827860F911DA11DB11D62E0880FE0
:10030000991FAA1FBB1F6A95D1F7BC012DC0FFB76B
:10031000F8948091080190910901A0910A01B0918F
:100320000B01E6B5A89B05C0EF3F19F00196A11D92
:10033000B11DFFBFBA2FA92F982F88278E0F911DAF
:10034000A11DB11DE2E0880F991FAA1FBB1FEA95EE
:10035000D1F7861B970B885E9340C8F2215030403E
:100360004040504068517C4F2115310541055105F1
:1003700071F60895789484B5826084BD84B58160F7
:1003800084BD85B5826085BD85B5816085BDEEE69D
:10039000F0E0808181608083E1E8F0E0108280817C
:1003A00082608083808181608083E0E8F0E08081EA
:1003B00081608083E1EBF0E0808184608083E0EB0A
:1003C000F0E0808181608083EAE7F0E080818460F2
:1003D000808380818260808380818160808380814E
:1003E000806880831092C1000895982F8E3008F0A5
:1003F0009E509770809102018295880F880F807CB3
:10040000892B80937C0080917A00806480937A00AD
:1004100080917A0086FDFCCF209178004091790090
:10042000942F80E030E0282B392BC9010895CF9319
:10043000DF93482F50E0CA0186569F4FFC0134914C
:100440004A575F4FFA018491882369F190E0880F41
:10045000991FFC01E859FF4FA591B491FC01EE589A
:10046000FF4FC591D491662351F42FB7F8948C9126
:10047000932F909589238C93888189230BC06230B8
:1004800061F42FB7F8948C91932F909589238C93D6
:100490008881832B88832FBF06C09FB7F8948C91E7
:1004A000832B8C939FBFDF91CF910895482F50E00D
:1004B000CA0182559F4FFC012491CA0186569F4F65
:1004C000FC0194914A575F4FFA013491332309F4A8
:1004D00040C0222351F1233071F0243028F4213020
:1004E000A1F0223011F514C02630B1F02730C1F050
:1004F0002430D9F404C0809180008F7703C08091AC
:1005000080008F7D8093800010C084B58F7702C0FB
:1005100084B58F7D84BD09C08091B0008F7703C002
:100520008091B0008F7D8093B000E32FF0E0EE0F5C
:10053000FF1FEE58FF4FA591B4912FB7F894662393
:1005400021F48C919095892302C08C91892B8C93F6
:100550002FBF0895CF93DF930E94BA010E94D80065
:10056000C0E0D0E00E9481002097E1F30E940000EB
:10057000F9CF813041F0813018F08230D1F409C0D8
:1005800010926E00089580916F008D7F80936F00B0
:100590000895809170008D7F8093700081E080933A
:1005A000B0008091B100887F84608093B100109288
:1005B000B30008951F93182F80910301811711F044
:1005C0009FEF06C0E2ECF0E094918FEF809303017F
:1005D000892F0E94B902812F60E00E9456021F916C
:1005E00008951F920F920FB60F9211242F933F93ED
:1005F0004F935F936F937F938F939F93AF93BF932B
:10060000EF93FF9380911F0190912001A091210110
:10061000B09122010097A105B10551F1E0912301AC
:10062000F091240180819091250189278083809118
:100630001F0190912001A0912101B0912201181673
:1006400019061A061B06C4F480911F01909120011F
:10065000A0912101B09122010197A109B1098093D4
:100660001F0190932001A0932101B093220104C0A7
:10067000809103010E94DA02FF91EF91BF91AF9147
:100680009F918F917F916F915F914F913F912F91AA
:100690000F900FBE0F901F9018952F923F925F9270
:1006A0006F927F928F929F92AF92BF92CF92DF9282
:1006B000EF92FF920F931F93DF93CF9300D000D060
:1006C000CDB7DEB7A82F1B0129833A834B835C8308
:1006D000809103018A1721F4E2ECF0E0549082C08B
:1006E0008F3F09F0DAC1A0930301E2ECF0E05490EF
:1006F0002FEF521609F4D1C181E0581639F192E07A
:10070000591609F449C0552009F06CC014BC15BC39
:1007100084B5826084BD85B5816085BD2A2F30E0B7
:10072000F901EA57FF4FE491F0E0EE0FFF1FEE589A
:10073000FF4F859194919093160180931501265651
:100740003F4FF9018491809317014EC010928000B1
:100750001092810080918100886080938100809157
:1007600081008160809381002A2F30E0F901EA57EF
:10077000FF4FE491F0E0EE0FFF1FEE58FF4F859121
:10078000949190931D0180931C0126563F4FF901CF
:10079000849180931E0128C01092B0001092B10085
:1007A0008091B00082608093B0008091B100816040
:1007B0008093B1002A2F30E0F901EA57FF4FE4910E
:1007C000F0E0EE0FFF1FEE58FF4F8591949190934C
:1007D00024018093230126563F4FF9018491809391
:1007E000250102C057FC59C18A2F61E00E941702FF
:1007F000552021F0F2E05F1609F0BEC031018824D7
:10080000992460E072E18AE790E0A40193010E94DC
:10081000ED0559016A01860175010894E108F108A6
:10082000010911092FEFE216F1040105110509F084
:1008300008F499C060E472E48FE090E0A4019301B1
:100840000E94ED0579018A010894E108F108010987
:10085000110982E05816C1F49FEFE916F104010571
:10086000110509F008F484C060E970ED83E090E0C0
:10087000A40193010E94ED0579018A010894E10821
:10088000F1080109110983E0AFEFEA16F10401054F
:10089000110509F008F468C068E478EE81E090E0A2
:1008A000A40193010E94ED0579018A010894E108F1
:1008B000F10801091109552011F483E01DC0B2E0CF
:1008C0005B1611F084E018C0EFEFEE16F10401059D
:1008D000110509F008F4DFC064E274EF80E090E0F5
:1008E000A40193010E94ED0579018A010894E108B1
:1008F000F1080109110985E0FFEFEF16F104010588
:10090000110591F188F162E17AE780E090E0A401BD
:1009100093010E94ED0579018A010894E108F1082C
:1009200001091109552011F086E001C084E02FEF84
:10093000E216F10401051105B9F0B0F0C601B501E8
:1009400020E034E040E050E00E94ED0579018A01AA
:100950000894E108F10801091109552011F087E018
:1009600008C085E003C081E0552019F485BD3AC078
:1009700082E08093B10036C05101CC24DD2460E0D8
:1009800072E18AE790E0A60195010E94ED057901E8
:100990008A010894E108F1080109110980E0E816CC
:1009A00080E0F80681E0080780E0180710F491E085
:1009B00010C068E478EE81E090E0A60195010E9405
:1009C000ED0579018A010894E108F108010911098E
:1009D00093E0A1E05A1631F480918100887F982B32
:1009E0009093810089819A81AB81BC810097A10598
:1009F000B10529F48FEF9FEFAFEFBFEF13C0220CCB
:100A0000331CB10180E090E029813A814B815C8107
:100A10000E94AC0528EE33E040E050E00E94CB0598
:100A2000C901DA01E1E05E16A1F0F2E05F1619F10A
:100A3000552099F5E7BC8093110190931201A09382
:100A40001301B093140180916E00826080936E0058
:100A500024C0F0928900E09288008093180190935E
:100A60001901A0931A01B0931B0180916F0082605D
:100A700080936F0012C0E092B30080931F019093A7
:100A80002001A0932101B093220180917000826027
:100A90008093700002C084E06CCF0F900F900F9095
:100AA0000F90CF91DF911F910F91FF90EF90DF900A
:100AB000CF90BF90AF909F908F907F906F905F90FE
:100AC0003F902F9008952F923F924F925F926F9296
:100AD0007F928F929F92AF92BF92CF92DF92EF92CE
:100AE000FF920F931F93DF93CF93CDB7DEB73B01F8
:100AF0004C0119012A016D897E898F89988D6A19A7
:100B00007B098C099D09621A730A840A950AA4015B
:100B100093010E94AC05E218F30804091509A80125
:100B200097010E94ED052A0D3B1D4C1D5D1DB9016D
:100B3000CA01CF91DF911F910F91FF90EF90DF904D
:100B4000CF90BF90AF909F908F907F906F905F906D
:100B50004F903F902F900895629FD001739FF001B6
:100B6000829FE00DF11D649FE00DF11D929FF00D3D
:100B7000839FF00D749FF00D659FF00D9927729F74
:100B8000B00DE11DF91F639FB00DE11DF91FBD01FF
:100B9000CF0111240895A1E21A2EAA1BBB1BFD014F
:100BA0000DC0AA1FBB1FEE1FFF1FA217B307E4074C
:100BB000F50720F0A21BB30BE40BF50B661F771FA4
:100BC000881F991F1A9469F7609570958095909584
:100BD0009B01AC01BD01CF01089597FB092E0526AD
:100BE0000ED057FD04D0D7DF0AD0001C38F4509542
:100BF0004095309521953F4F4F4F5F4F0895F6F741
:100C000090958095709561957F4F8F4F9F4F089578
:040C1000F894FFCF86
:040C1400FF0301FFDA
:00000001FF
